{"abi":[{"type":"constructor","inputs":[{"name":"initialReward","type":"uint256","internalType":"uint256"}],"stateMutability":"nonpayable"},{"type":"function","name":"MAX_NFT_SUPPLY","inputs":[],"outputs":[{"name":"","type":"uint256","internalType":"uint256"}],"stateMutability":"view"},{"type":"function","name":"MAX_REWARD_AMOUNT","inputs":[],"outputs":[{"name":"","type":"uint256","internalType":"uint256"}],"stateMutability":"view"},{"type":"function","name":"MAX_TOKEN_SUPPLY","inputs":[],"outputs":[{"name":"","type":"uint256","internalType":"uint256"}],"stateMutability":"view"},{"type":"function","name":"approve","inputs":[{"name":"to","type":"address","internalType":"address"},{"name":"tokenId","type":"uint256","internalType":"uint256"}],"outputs":[],"stateMutability":"nonpayable"},{"type":"function","name":"balanceOf","inputs":[{"name":"owner","type":"address","internalType":"address"}],"outputs":[{"name":"","type":"uint256","internalType":"uint256"}],"stateMutability":"view"},{"type":"function","name":"creators","inputs":[{"name":"","type":"uint256","internalType":"uint256"}],"outputs":[{"name":"","type":"address","internalType":"address"}],"stateMutability":"view"},{"type":"function","name":"getApproved","inputs":[{"name":"tokenId","type":"uint256","internalType":"uint256"}],"outputs":[{"name":"","type":"address","internalType":"address"}],"stateMutability":"view"},{"type":"function","name":"isApprovedForAll","inputs":[{"name":"owner","type":"address","internalType":"address"},{"name":"operator","type":"address","internalType":"address"}],"outputs":[{"name":"","type":"bool","internalType":"bool"}],"stateMutability":"view"},{"type":"function","name":"mintNFT","inputs":[{"name":"metadataURI","type":"string","internalType":"string"}],"outputs":[],"stateMutability":"nonpayable"},{"type":"function","name":"name","inputs":[],"outputs":[{"name":"","type":"string","internalType":"string"}],"stateMutability":"view"},{"type":"function","name":"nftApprove","inputs":[{"name":"to","type":"address","internalType":"address"},{"name":"tokenId","type":"uint256","internalType":"uint256"}],"outputs":[],"stateMutability":"nonpayable"},{"type":"function","name":"nftBalanceOf","inputs":[{"name":"owner","type":"address","internalType":"address"}],"outputs":[{"name":"","type":"uint256","internalType":"uint256"}],"stateMutability":"view"},{"type":"function","name":"nftName","inputs":[],"outputs":[{"name":"","type":"string","internalType":"string"}],"stateMutability":"view"},{"type":"function","name":"nftSymbol","inputs":[],"outputs":[{"name":"","type":"string","internalType":"string"}],"stateMutability":"view"},{"type":"function","name":"nftTotalSupply","inputs":[],"outputs":[{"name":"","type":"uint256","internalType":"uint256"}],"stateMutability":"view"},{"type":"function","name":"nftTransferFrom","inputs":[{"name":"from","type":"address","internalType":"address"},{"name":"to","type":"address","internalType":"address"},{"name":"tokenId","type":"uint256","internalType":"uint256"}],"outputs":[],"stateMutability":"nonpayable"},{"type":"function","name":"owner","inputs":[],"outputs":[{"name":"","type":"address","internalType":"address"}],"stateMutability":"view"},{"type":"function","name":"ownerOf","inputs":[{"name":"tokenId","type":"uint256","internalType":"uint256"}],"outputs":[{"name":"","type":"address","internalType":"address"}],"stateMutability":"view"},{"type":"function","name":"pause","inputs":[],"outputs":[],"stateMutability":"nonpayable"},{"type":"function","name":"paused","inputs":[],"outputs":[{"name":"","type":"bool","internalType":"bool"}],"stateMutability":"view"},{"type":"function","name":"renounceOwnership","inputs":[],"outputs":[],"stateMutability":"nonpayable"},{"type":"function","name":"rewardAmount","inputs":[],"outputs":[{"name":"","type":"uint256","internalType":"uint256"}],"stateMutability":"view"},{"type":"function","name":"rewardCreator","inputs":[{"name":"to","type":"address","internalType":"address"},{"name":"amount","type":"uint256","internalType":"uint256"}],"outputs":[],"stateMutability":"nonpayable"},{"type":"function","name":"safeTransferFrom","inputs":[{"name":"from","type":"address","internalType":"address"},{"name":"to","type":"address","internalType":"address"},{"name":"tokenId","type":"uint256","internalType":"uint256"}],"outputs":[],"stateMutability":"nonpayable"},{"type":"function","name":"safeTransferFrom","inputs":[{"name":"from","type":"address","internalType":"address"},{"name":"to","type":"address","internalType":"address"},{"name":"tokenId","type":"uint256","internalType":"uint256"},{"name":"data","type":"bytes","internalType":"bytes"}],"outputs":[],"stateMutability":"nonpayable"},{"type":"function","name":"setApprovalForAll","inputs":[{"name":"operator","type":"address","internalType":"address"},{"name":"approved","type":"bool","internalType":"bool"}],"outputs":[],"stateMutability":"nonpayable"},{"type":"function","name":"setRewardAmount","inputs":[{"name":"newAmount","type":"uint256","internalType":"uint256"}],"outputs":[],"stateMutability":"nonpayable"},{"type":"function","name":"supportsInterface","inputs":[{"name":"interfaceId","type":"bytes4","internalType":"bytes4"}],"outputs":[{"name":"","type":"bool","internalType":"bool"}],"stateMutability":"view"},{"type":"function","name":"symbol","inputs":[],"outputs":[{"name":"","type":"string","internalType":"string"}],"stateMutability":"view"},{"type":"function","name":"tokenAllowance","inputs":[{"name":"owner","type":"address","internalType":"address"},{"name":"spender","type":"address","internalType":"address"}],"outputs":[{"name":"","type":"uint256","internalType":"uint256"}],"stateMutability":"view"},{"type":"function","name":"tokenApprove","inputs":[{"name":"spender","type":"address","internalType":"address"},{"name":"amount","type":"uint256","internalType":"uint256"}],"outputs":[{"name":"","type":"bool","internalType":"bool"}],"stateMutability":"nonpayable"},{"type":"function","name":"tokenBalanceOf","inputs":[{"name":"account","type":"address","internalType":"address"}],"outputs":[{"name":"","type":"uint256","internalType":"uint256"}],"stateMutability":"view"},{"type":"function","name":"tokenByIndex","inputs":[{"name":"index","type":"uint256","internalType":"uint256"}],"outputs":[{"name":"","type":"uint256","internalType":"uint256"}],"stateMutability":"view"},{"type":"function","name":"tokenDecimals","inputs":[],"outputs":[{"name":"","type":"uint8","internalType":"uint8"}],"stateMutability":"view"},{"type":"function","name":"tokenName","inputs":[],"outputs":[{"name":"","type":"string","internalType":"string"}],"stateMutability":"view"},{"type":"function","name":"tokenOfOwnerByIndex","inputs":[{"name":"owner","type":"address","internalType":"address"},{"name":"index","type":"uint256","internalType":"uint256"}],"outputs":[{"name":"","type":"uint256","internalType":"uint256"}],"stateMutability":"view"},{"type":"function","name":"tokenSymbol","inputs":[],"outputs":[{"name":"","type":"string","internalType":"string"}],"stateMutability":"view"},{"type":"function","name":"tokenTotalSupply","inputs":[],"outputs":[{"name":"","type":"uint256","internalType":"uint256"}],"stateMutability":"view"},{"type":"function","name":"tokenTransfer","inputs":[{"name":"to","type":"address","internalType":"address"},{"name":"amount","type":"uint256","internalType":"uint256"}],"outputs":[{"name":"","type":"bool","internalType":"bool"}],"stateMutability":"nonpayable"},{"type":"function","name":"tokenTransferFrom","inputs":[{"name":"from","type":"address","internalType":"address"},{"name":"to","type":"address","internalType":"address"},{"name":"amount","type":"uint256","internalType":"uint256"}],"outputs":[{"name":"","type":"bool","internalType":"bool"}],"stateMutability":"nonpayable"},{"type":"function","name":"tokenURI","inputs":[{"name":"tokenId","type":"uint256","internalType":"uint256"}],"outputs":[{"name":"","type":"string","internalType":"string"}],"stateMutability":"view"},{"type":"function","name":"totalNFTSupply","inputs":[],"outputs":[{"name":"","type":"uint256","internalType":"uint256"}],"stateMutability":"view"},{"type":"function","name":"totalSupply","inputs":[],"outputs":[{"name":"","type":"uint256","internalType":"uint256"}],"stateMutability":"view"},{"type":"function","name":"transferFrom","inputs":[{"name":"from","type":"address","internalType":"address"},{"name":"to","type":"address","internalType":"address"},{"name":"tokenId","type":"uint256","internalType":"uint256"}],"outputs":[],"stateMutability":"nonpayable"},{"type":"function","name":"transferOwnership","inputs":[{"name":"newOwner","type":"address","internalType":"address"}],"outputs":[],"stateMutability":"nonpayable"},{"type":"function","name":"unpause","inputs":[],"outputs":[],"stateMutability":"nonpayable"},{"type":"event","name":"Approval","inputs":[{"name":"owner","type":"address","indexed":true,"internalType":"address"},{"name":"approved","type":"address","indexed":true,"internalType":"address"},{"name":"tokenId","type":"uint256","indexed":true,"internalType":"uint256"}],"anonymous":false},{"type":"event","name":"ApprovalForAll","inputs":[{"name":"owner","type":"address","indexed":true,"internalType":"address"},{"name":"operator","type":"address","indexed":true,"internalType":"address"},{"name":"approved","type":"bool","indexed":false,"internalType":"bool"}],"anonymous":false},{"type":"event","name":"BatchMetadataUpdate","inputs":[{"name":"_fromTokenId","type":"uint256","indexed":false,"internalType":"uint256"},{"name":"_toTokenId","type":"uint256","indexed":false,"internalType":"uint256"}],"anonymous":false},{"type":"event","name":"MetadataUpdate","inputs":[{"name":"_tokenId","type":"uint256","indexed":false,"internalType":"uint256"}],"anonymous":false},{"type":"event","name":"NFTMinted","inputs":[{"name":"creator","type":"address","indexed":true,"internalType":"address"},{"name":"tokenId","type":"uint256","indexed":true,"internalType":"uint256"},{"name":"uri","type":"string","indexed":false,"internalType":"string"}],"anonymous":false},{"type":"event","name":"OwnershipTransferred","inputs":[{"name":"previousOwner","type":"address","indexed":true,"internalType":"address"},{"name":"newOwner","type":"address","indexed":true,"internalType":"address"}],"anonymous":false},{"type":"event","name":"Paused","inputs":[{"name":"account","type":"address","indexed":false,"internalType":"address"}],"anonymous":false},{"type":"event","name":"RewardAmountUpdated","inputs":[{"name":"oldAmount","type":"uint256","indexed":false,"internalType":"uint256"},{"name":"newAmount","type":"uint256","indexed":false,"internalType":"uint256"}],"anonymous":false},{"type":"event","name":"TokenApproval","inputs":[{"name":"owner","type":"address","indexed":true,"internalType":"address"},{"name":"spender","type":"address","indexed":true,"internalType":"address"},{"name":"value","type":"uint256","indexed":false,"internalType":"uint256"}],"anonymous":false},{"type":"event","name":"TokenTransfer","inputs":[{"name":"from","type":"address","indexed":true,"internalType":"address"},{"name":"to","type":"address","indexed":true,"internalType":"address"},{"name":"value","type":"uint256","indexed":false,"internalType":"uint256"}],"anonymous":false},{"type":"event","name":"Transfer","inputs":[{"name":"from","type":"address","indexed":true,"internalType":"address"},{"name":"to","type":"address","indexed":true,"internalType":"address"},{"name":"tokenId","type":"uint256","indexed":true,"internalType":"uint256"}],"anonymous":false},{"type":"event","name":"Unpaused","inputs":[{"name":"account","type":"address","indexed":false,"internalType":"address"}],"anonymous":false},{"type":"error","name":"ERC721EnumerableForbiddenBatchMint","inputs":[]},{"type":"error","name":"ERC721IncorrectOwner","inputs":[{"name":"sender","type":"address","internalType":"address"},{"name":"tokenId","type":"uint256","internalType":"uint256"},{"name":"owner","type":"address","internalType":"address"}]},{"type":"error","name":"ERC721InsufficientApproval","inputs":[{"name":"operator","type":"address","internalType":"address"},{"name":"tokenId","type":"uint256","internalType":"uint256"}]},{"type":"error","name":"ERC721InvalidApprover","inputs":[{"name":"approver","type":"address","internalType":"address"}]},{"type":"error","name":"ERC721InvalidOperator","inputs":[{"name":"operator","type":"address","internalType":"address"}]},{"type":"error","name":"ERC721InvalidOwner","inputs":[{"name":"owner","type":"address","internalType":"address"}]},{"type":"error","name":"ERC721InvalidReceiver","inputs":[{"name":"receiver","type":"address","internalType":"address"}]},{"type":"error","name":"ERC721InvalidSender","inputs":[{"name":"sender","type":"address","internalType":"address"}]},{"type":"error","name":"ERC721NonexistentToken","inputs":[{"name":"tokenId","type":"uint256","internalType":"uint256"}]},{"type":"error","name":"ERC721OutOfBoundsIndex","inputs":[{"name":"owner","type":"address","internalType":"address"},{"name":"index","type":"uint256","internalType":"uint256"}]},{"type":"error","name":"EnforcedPause","inputs":[]},{"type":"error","name":"ExpectedPause","inputs":[]},{"type":"error","name":"InvalidRewardAmount","inputs":[]},{"type":"error","name":"InvalidURI","inputs":[]},{"type":"error","name":"MaxSupplyReached","inputs":[]},{"type":"error","name":"MaxTokenSupplyReached","inputs":[]},{"type":"error","name":"OwnableInvalidOwner","inputs":[{"name":"owner","type":"address","internalType":"address"}]},{"type":"error","name":"OwnableUnauthorizedAccount","inputs":[{"name":"account","type":"address","internalType":"address"}]},{"type":"error","name":"ReentrancyGuardReentrantCall","inputs":[]},{"type":"error","name":"ZeroAddress","inputs":[]}],"bytecode":{"object":"0x608034620003ee57601f19906001600160401b0390601f62002562388190038281018616840185811185821017620003da57849282916040528339602093849181010312620003ee57519362000054620003f2565b936006855265105c9d13919560d21b8486015262000071620003f2565b9160048352631053919560e21b858401528551828111620003da57805f976200009b895462000412565b878111620003aa575b508790878311600114620003475789926200033b575b50508160011b915f199060031b1c19161786555b825191821162000327578190600193620000e9855462000412565b868111620002ec575b5086918684116001146200028c5750879262000280575b50505f19600383901b1c191690821b1781555b33156200026757600b8054336001600160a01b0319821681179092556001600160a01b03167f8be0079c531659141344cd1fd0a4f28419497f9722a3daafe3b4186f6b6457e08680a380600c55600e556200017960145462000412565b81811162000246575b507f43726561746f72546f6b656e0000000000000000000000000000000000000018601455601554620001b59062000412565b9181831162000224575b505060066243544b60e81b0160155550506016805460ff191660121790558015801562000211575b620001ff57600f556040516120fc9081620004668239f35b604051633853986560e01b8152600490fd5b50683635c9adc5dea000008111620001e7565b8360156200023c955220910160051c8101906200044d565b5f808080620001bf565b601484528284206200026091830160051c8101906200044d565b5f62000182565b604051631e4fbdf760e01b815260048101859052602490fd5b015190505f8062000109565b85895287892086959093929116895b89828210620002d55750508411620002bc575b505050811b0181556200011c565b01515f1960f88460031b161c191690555f8080620002ae565b83850151865588979095019493840193016200029b565b6200031690868a52888a208880870160051c8201928b88106200031d575b0160051c01906200044d565b5f620000f2565b925081926200030a565b634e487b7160e01b86526041600452602486fd5b015190505f80620000ba565b898052888a209285168a5b8a828210620003935750509084600195949392106200037a575b505050811b018655620000ce565b01515f1960f88460031b161c191690555f80806200036c565b600185968293968601518155019501930162000352565b620003d3908a8052898b208980860160051c8201928c87106200031d570160051c01906200044d565b5f620000a4565b634e487b7160e01b5f52604160045260245ffd5b5f80fd5b60408051919082016001600160401b03811183821017620003da57604052565b90600182811c9216801562000442575b60208310146200042e57565b634e487b7160e01b5f52602260045260245ffd5b91607f169162000422565b81811062000459575050565b5f81556001016200044d56fe60406080815260049081361015610014575f80fd5b5f91823560e01c80628bfb00146115db57806301ffc9a7146115f957806306fdde03146115db5780630773fdb914611532578063081812fc146114f7578063095ea7b314610ad25780630bb23784146113ca5780630cd689f5146114325780630e313e9814611055578063119c1c23146113e957806312c0f3d314610e5e57806318160ddd146113ca57806323b872dd146108f65780632f745c59146113465780633b97e856146113245780633f4ba83a146112bb57806342842e0e1461128c5780634f6ccce7146112385780635c975abb146112145780636352211e146111e357806368cdafe61461112c5780636c02a9311461108257806370a0823114611055578063715018a614610ff85780637b61c32014610f135780638456cb5914610eb85780638da5cb5b14610e8f57806395d89b4114610e5e578063961974ba14610ccb578063a04f6b4b14610ca7578063a22cb46514610c06578063a8a65a7814610b82578063b5077f4414610b65578063b88d4fde14610af9578063bceb1c6f14610ad2578063c87b56dd146109e2578063cd53d08e146109b0578063e2c7928114610971578063e42c08f214610939578063e489d51014610914578063e7f7fb86146108f6578063e985e9c5146108a8578063f2fde38b1461081e578063f7abab9e146107ff578063f7b2a7be146107dc5763fb37e88314610217575f80fd5b346107d8576020806003193601126107d45781359167ffffffffffffffff938484116107d057366023850112156107d05761025c6024943690868186013591016117ae565b91610265611f39565b61026d611f1b565b8251156107c257600e549461271086116107b3575f19968688146107a157600197888801600e55845161029f81611740565b8a8152331561078b57908a939291898552600289528a60018060a01b0388872054168a8c8a8315998a15958661075b575b33825260038552828220908154019055828152600284528181209a6001600160601b0360a01b9b338d8254161790558333877fddf252ad1be2c89b69c2b068fc378daa952ba7f163c4a11628f55a4df523b3ef8580a4156106e257600a6009549485948352522055600160401b8110156106d0578c6103588f92610370938101600955611d68565b90919082549060031b91821b915f19901b1916179055565b3303610687575b61067157333b610550575b50888b5260068852858b2092875192831161053f575081906103a48454611846565b601f81116104ef575b5088601f8311600114610490578c92610485575b50828b1b9260031b1c19161790555b7ff8e1a15aba9398e019f0b49df1a4fde98ee17ae345cb5f6b5e2c27f5033e8ce7858451888152a1858852601085528288209033908254161790556013549069d3c21bcecceda1000000610427600f548094611efa565b1161047757509161046e9161045d7fd35bb95e09c04b219e35047ce7b7b300e3384264ef84a40456943dbc0fc17c149433611f69565b51918291858352339583019061169d565b0390a3600c5580f35b8251630397db2f60e21b8152fd5b88015191505f6103c1565b848d52898d208c94509190601f1984168e5b8c8c8383106104da5750505084116104c2575b505050811b0190556103d0565b8901519060f88460031b161c191690555f80806104b5565b84015186558f979095019492830192016104a2565b909150838c52888c20601f840160051c8101918a8510610535575b84939291601f8e920160051c01915b8281106105275750506103ad565b8e81558594508d9101610519565b909150819061050a565b634e487b7160e01b8c52604186528bfd5b94869995898d869e9a9796610592859f9b519485938493630a85bd0160e11b9889865233908601528401528b604484015260806064840152608483019061169d565b03818c335af189918161062d575b506105fa578c8c8c8c8c3d156105f2573d6105ba81611792565b906105c785519283611770565b81528091833d92013e5b805191826105ef575050505190633250574960e11b82523390820152fd5b01fd5b5060606105d1565b63ffffffff60e09d9596999d9c979b989c1b1603610618575f610382565b8551633250574960e11b815233818701528390fd5b9091508a81813d831161066a575b6106458183611770565b8101031261066657516001600160e01b03198116810361066657905f6105a0565b8980fd5b503d61063b565b86516339e3563760e11b81528087018d90528490fd5b61069033611810565b8381019081116106be57888e33815260078d528181208382528d528d828220558d815260088d522055610377565b634e487b7160e01b8e5260118852858efd5b634e487b7160e01b8f5260418952868ffd5b90923385036106f5575b50505050610370565b60089061070186611810565b9380845282825285842054878552600783528685209686820361073a575b5050835252808c812055528b528d89812055888c8f8d6106ec565b86865287845280862054828752808288205586528484528520555f8f61071f565b5f84815260046020526040902080546001600160a01b0319169055858252600385528282208981540190556102d0565b8551633250574960e11b81528086018c90528490fd5b50634e487b7160e01b88526011825287fd5b50905163d05cb60960e01b8152fd5b9051633ba0191160e01b8152fd5b8580fd5b8380fd5b8280fd5b5050346107fb57816003193601126107fb57602090600f549051908152f35b5080fd5b5050346107fb57816003193601126107fb576020906013549051908152f35b50346107d85760203660031901126107d8576108386116db565b906108416117e4565b6001600160a01b03918216928315610892575050600b54826001600160601b0360a01b821617600b55167f8be0079c531659141344cd1fd0a4f28419497f9722a3daafe3b4186f6b6457e08380a380f35b51631e4fbdf760e01b8152908101849052602490fd5b5050346107fb57806003193601126107fb5760ff816020936108c86116db565b6108d06116f5565b6001600160a01b0391821683526005875283832091168252855220549151911615158152f35b83346109115761090e6109083661170b565b916119cb565b80f35b80fd5b5050346107fb57816003193601126107fb576020905169d3c21bcecceda10000008152f35b5050346107fb5760203660031901126107fb5760209181906001600160a01b036109616116db565b1681526011845220549051908152f35b509190346107fb57816003193601126107fb57600e545f1981019290831161099d576020838351908152f35b634e487b7160e01b815260118452602490fd5b50346107d85760203660031901126107d85735825260106020908152918190205490516001600160a01b039091168152f35b5090346107d857602091826003193601126107d45735610a0181611d2e565b50835260068252808320928151809482908054610a1d81611846565b918285526001918883821691825f14610aab575050600114610a6d575b505050610a69939291610a4e910386611770565b8151610a5981611740565b525192828493845283019061169d565b0390f35b8552868520879350859291905b828410610a935750505082010181610a4e610a69610a3a565b8054848b018601528995508894909301928101610a7a565b60ff19168782015293151560051b86019093019350849250610a4e9150610a699050610a3a565b5050346107fb573660031901126109115761090e610aee6116db565b339060243590611c71565b8382346107fb5760803660031901126107fb57610b146116db565b610b1c6116f5565b6044359060643567ffffffffffffffff81116107d057366023820112156107d05761090e94816024610b53933693013591016117ae565b92610b5f8383836119cb565b33611db1565b5050346107fb57816003193601126107fb57602090516127108152f35b50346107d85760203660031901126107d857803590610b9f6117e4565b81158015610bf4575b610be65750907ff0d37c3ae852021ac329281f604b658691cbfa6b9e9c22909f06b64a8ce87c9491600f549080600f5582519182526020820152a180f35b8251633853986560e01b8152fd5b50683635c9adc5dea000008211610ba8565b5090346107d857806003193601126107d857610c206116db565b9060243591821515809303610ca3576001600160a01b0316928315610c8e5750338452600560205280842083855260205280842060ff1981541660ff8416179055519081527f17307eab39ab6107e8899845ad3d59bd9653f200f220920489ca2b5937696c3160203392a380f35b836024925191630b61174360e31b8352820152fd5b8480fd5b5050346107fb57816003193601126107fb5760209051683635c9adc5dea000008152f35b50913461091157610cdb3661170b565b9091610ce5611f39565b6001600160a01b03908116928315610e0d571692610d04841515612013565b82815260209560118752610d1d8387842054101561206b565b838252601287528582203383528752828683205410610db957507fd0ed88a3f042c6bbb1e3ea406079b5f2b4b198afccaa535d837f4c63abbc4de69185828589945260118452818120610d71848254611f5c565b905586815260118452818120610d88848254611efa565b905585815260128452818120338252845220610da5828254611f5c565b90558551908152a36001600c555160018152f35b855162461bcd60e51b8152908101879052602860248201527f45524332303a207472616e7366657220616d6f756e74206578636565647320616044820152676c6c6f77616e636560c01b6064820152608490fd5b855162461bcd60e51b8152602081890152602560248201527f45524332303a207472616e736665722066726f6d20746865207a65726f206164604482015264647265737360d81b6064820152608490fd5b5050346107fb57816003193601126107fb57610a6990610e7c611937565b905191829160208352602083019061169d565b5050346107fb57816003193601126107fb57600b5490516001600160a01b039091168152602090f35b5050346107fb57816003193601126107fb5760207f62e78cea01bee320cd4e420270b5ea74000d11b0c9f74754ebdbfc544b05a25891610ef66117e4565b610efe611f1b565b600160ff19600d541617600d5551338152a180f35b5050346107fb57816003193601126107fb5780519082601554610f3581611846565b80855291600191808316908115610fd05750600114610f73575b505050610f6182610a69940383611770565b5191829160208352602083019061169d565b9450601585527f55f448fdea98c4d29eb340757ef0a66cd03dbb9538908a6a81d96026b71ec4755b828610610fb857505050610f61826020610a699582010194610f4f565b80546020878701810191909152909501948101610f9b565b610a69975086935060209250610f6194915060ff191682840152151560051b82010194610f4f565b83346109115780600319360112610911576110116117e4565b600b80546001600160a01b0319811690915581906001600160a01b03167f8be0079c531659141344cd1fd0a4f28419497f9722a3daafe3b4186f6b6457e08280a380f35b5050346107fb5760203660031901126107fb5760209061107b6110766116db565b611810565b9051908152f35b5050346107fb57816003193601126107fb57805190826014546110a481611846565b80855291600191808316908115610fd057506001146110cf57505050610f6182610a69940383611770565b9450601485527fce6d7b5282bd9a3661ae061feed1dbda4e52ab073b1f9285be6e155d9c38d4ec5b82861061111457505050610f61826020610a699582010194610f4f565b805460208787018101919091529095019481016110f7565b5050346107fb57806003193601126107fb576020916111496116db565b8260243591611156611f39565b6001600160a01b03169261116b841515612013565b338152601186526111818383832054101561206b565b33815260118652818120611196848254611f5c565b905583815260118652206111ab828254611efa565b905582519081527fd0ed88a3f042c6bbb1e3ea406079b5f2b4b198afccaa535d837f4c63abbc4de6843392a36001600c555160018152f35b509134610911576020366003190112610911575061120360209235611d2e565b90516001600160a01b039091168152f35b5050346107fb57816003193601126107fb5760209060ff600d541690519015158152f35b50346107d85760203660031901126107d8578035926009548410156112715760208361126386611d68565b91905490519160031b1c8152f35b6044939192519263295f44f760e21b84528301526024820152fd5b5050346107fb5761090e906112a03661170b565b919251926112ad84611740565b858452610b5f8383836119cb565b50346107d857826003193601126107d8576112d46117e4565b600d549060ff821615611316575060ff1916600d55513381527f5db9ee0a495bf2e6ff9c91a7834c1ba4fdd244a5e8aa4e537bd38aeae4b073aa90602090a180f35b8251638dfc202b60e01b8152fd5b5050346107fb57816003193601126107fb5760209060ff601654169051908152f35b5091346109115781600319360112610911576113606116db565b926024359061136e85611810565b82101561139e57506001600160a01b03909316815260076020908152828220938252928352819020549051908152f35b925163295f44f760e21b81526001600160a01b0390941692840192835260208301525081906040010390fd5b5050346107fb57816003193601126107fb576020906009549051908152f35b5050346107fb57806003193601126107fb57806020926114076116db565b61140f6116f5565b6001600160a01b0391821683526012865283832091168252845220549051908152f35b50913461091157816003193601126109115761144c6116db565b6001600160a01b0316906024359082156114a95760209450838291338152601287528181208582528752205582519081527fbd8c52b9aae0cd00b85a5f7486cffa402789c66b7fcf362cde5f658b16970630843392a35160018152f35b835162461bcd60e51b8152602081870152602260248201527f45524332303a20617070726f766520746f20746865207a65726f206164647265604482015261737360f01b6064820152608490fd5b50346107d85760203660031901126107d85791826020933561151881611d2e565b50825283528190205490516001600160a01b039091168152f35b509190346107fb57806003193601126107fb5761154d6116db565b602435916115596117e4565b6001600160a01b038216156115cc57821580156115ba575b6115ab5769d3c21bcecceda100000061158c84601354611efa565b1161159c57509061090e91611f69565b51630397db2f60e21b81528490fd5b51633853986560e01b81528490fd5b50683635c9adc5dea000008311611571565b5163d92e233d60e01b81528490fd5b5050346107fb57816003193601126107fb57610a6990610e7c61187e565b50346107d85760203660031901126107d857359063ffffffff60e01b82168092036107d8576020925063780e9d6360e01b821491821561163d575b50519015158152f35b909150632483248360e11b811490811561165a575b50905f611634565b6380ac58cd60e01b81149150811561168c575b811561167b575b505f611652565b6301ffc9a760e01b1490505f611674565b635b5e139f60e01b8114915061166d565b91908251928382525f5b8481106116c7575050825f602080949584010152601f8019910116010190565b6020818301810151848301820152016116a7565b600435906001600160a01b03821682036116f157565b5f80fd5b602435906001600160a01b03821682036116f157565b60609060031901126116f1576001600160a01b039060043582811681036116f1579160243590811681036116f1579060443590565b6020810190811067ffffffffffffffff82111761175c57604052565b634e487b7160e01b5f52604160045260245ffd5b90601f8019910116810190811067ffffffffffffffff82111761175c57604052565b67ffffffffffffffff811161175c57601f01601f191660200190565b9291926117ba82611792565b916117c86040519384611770565b8294818452818301116116f1578281602093845f960137010152565b600b546001600160a01b031633036117f857565b60405163118cdaa760e01b8152336004820152602490fd5b6001600160a01b0316801561182e575f52600360205260405f205490565b6040516322718ad960e21b81525f6004820152602490fd5b90600182811c92168015611874575b602083101461186057565b634e487b7160e01b5f52602260045260245ffd5b91607f1691611855565b604051905f8281549161189083611846565b8083529260019081811690811561191557506001146118b9575b506118b792500383611770565b565b5f80805291507f290decd9548b62a8d60345a988386fc84ba6bc95484008f6362f93160ef3e5635b8483106118fa57506118b793505081016020015f6118aa565b81935090816020925483858a010152019101909185926118e1565b9050602092506118b794915060ff191682840152151560051b8201015f6118aa565b604051905f8260019182549261194c84611846565b80845293818116908115611915575060011461196f57506118b792500383611770565b5f81815291507fb10e2d527612073b26eecdfd717e6a320cf44b4afac2b0732d9fcbe2b7fa0cf65b8483106119b057506118b793505081016020015f6118aa565b81935090816020925483858a01015201910190918592611997565b6001600160a01b0382811693918415611c59575f94838652602095600287526040968488832054169633151580611bcb575b5087158015611b9a575b84845260038352898420805460010190558784526002835289842080546001600160a01b0319168617905587858a7fddf252ad1be2c89b69c2b068fc378daa952ba7f163c4a11628f55a4df523b3ef8780a415611b2e57600954878452600a8352808a852055600160401b811015611b1a5787610358826001611a8d9401600955611d68565b838803611ac9575b505050501692838303611aa85750505050565b6064945051926364283d7b60e01b8452600484015260248301526044820152fd5b611ad290611810565b5f19810193908411611b065782916008918a945260078152838320858452815287848420558783525220555f808080611a95565b634e487b7160e01b83526011600452602483fd5b634e487b7160e01b84526041600452602484fd5b878414611a8d57611b3e88611810565b878452600883528984205490898552600784528a852091818103611b78575b5088855260088452848b812055845282528289812055611a8d565b8186528285528b862054818752808d8820558652600885528b8620555f611b5d565b5f88815260046020526040902080546001600160a01b03191690558884526003835289842080545f19019055611a07565b80611c18575b15611bdc575f6119fd565b888789611bf9576024915190637e27328960e01b82526004820152fd5b905163177e802f60e01b81523360048201526024810191909152604490fd5b503388148015611c3d575b80611bd157508683526004825233868a8520541614611bd1565b5087835260058252888320338452825260ff8984205416611c23565b604051633250574960e11b81525f6004820152602490fd5b611c7a82611d2e565b6001600160a01b0393909190841680151580611d22575b80611cff575b611ce7575083169282918491167f8c5be1e5ebec7d5bd14f71427d1e84f3dd0314c0f7b2291e5b200ac8c7c3b9255f80a45f52600460205260405f20906001600160601b0360a01b825416179055565b6024906040519063a9fbf51f60e01b82526004820152fd5b508483165f52600560205260405f20815f5260205260ff60405f20541615611c97565b50808584161415611c91565b5f818152600260205260409020546001600160a01b0316908115611d50575090565b60249060405190637e27328960e01b82526004820152fd5b600954811015611d9d5760095f527f6e1540171b6c0c960b71a7020d9f60077f6af931a8bbf590da0223dacf75c7af01905f90565b634e487b7160e01b5f52603260045260245ffd5b909192833b611dc2575b5050505050565b604051630a85bd0160e11b8082526001600160a01b039384166004830152938316602482015260448101919091526080606482015260209591909316939091908390611e1290608483019061169d565b039285815f958187895af1849181611eba575b50611e84575050503d5f14611e7c573d611e3e81611792565b90611e4c6040519283611770565b81528091843d92013e5b80519283611e7757604051633250574960e11b815260048101849052602490fd5b019050fd5b506060611e56565b919450915063ffffffff60e01b1603611ea257505f80808080611dbb565b60249060405190633250574960e11b82526004820152fd5b9091508681813d8311611ef3575b611ed28183611770565b81010312610ca357516001600160e01b031981168103610ca357905f611e25565b503d611ec8565b91908201809211611f0757565b634e487b7160e01b5f52601160045260245ffd5b60ff600d5416611f2757565b60405163d93c066560e01b8152600490fd5b6002600c5414611f4a576002600c55565b604051633ee5aeb560e01b8152600490fd5b91908203918211611f0757565b6001600160a01b0316908115611fce577fd0ed88a3f042c6bbb1e3ea406079b5f2b4b198afccaa535d837f4c63abbc4de6602082611faa5f94601354611efa565b6013558484526011825260408420611fc3828254611efa565b9055604051908152a3565b60405162461bcd60e51b815260206004820152601f60248201527f45524332303a206d696e7420746f20746865207a65726f2061646472657373006044820152606490fd5b1561201a57565b60405162461bcd60e51b815260206004820152602360248201527f45524332303a207472616e7366657220746f20746865207a65726f206164647260448201526265737360e81b6064820152608490fd5b1561207257565b60405162461bcd60e51b815260206004820152602660248201527f45524332303a207472616e7366657220616d6f756e7420657863656564732062604482015265616c616e636560d01b6064820152608490fdfea26469706673582212204b146b240d216c2c40409dc0e4ceedd3c13b2d0d6f2734b9949612dc0892563264736f6c63430008140033","linkReferences":{}},"methodIdentifiers":{"MAX_NFT_SUPPLY()":"b5077f44","MAX_REWARD_AMOUNT()":"a04f6b4b","MAX_TOKEN_SUPPLY()":"e489d510","approve(address,uint256)":"095ea7b3","balanceOf(address)":"70a08231","creators(uint256)":"cd53d08e","getApproved(uint256)":"081812fc","isApprovedForAll(address,address)":"e985e9c5","mintNFT(string)":"fb37e883","name()":"06fdde03","nftApprove(address,uint256)":"bceb1c6f","nftBalanceOf(address)":"0e313e98","nftName()":"008bfb00","nftSymbol()":"12c0f3d3","nftTotalSupply()":"0bb23784","nftTransferFrom(address,address,uint256)":"e7f7fb86","owner()":"8da5cb5b","ownerOf(uint256)":"6352211e","pause()":"8456cb59","paused()":"5c975abb","renounceOwnership()":"715018a6","rewardAmount()":"f7b2a7be","rewardCreator(address,uint256)":"0773fdb9","safeTransferFrom(address,address,uint256)":"42842e0e","safeTransferFrom(address,address,uint256,bytes)":"b88d4fde","setApprovalForAll(address,bool)":"a22cb465","setRewardAmount(uint256)":"a8a65a78","supportsInterface(bytes4)":"01ffc9a7","symbol()":"95d89b41","tokenAllowance(address,address)":"119c1c23","tokenApprove(address,uint256)":"0cd689f5","tokenBalanceOf(address)":"e42c08f2","tokenByIndex(uint256)":"4f6ccce7","tokenDecimals()":"3b97e856","tokenName()":"6c02a931","tokenOfOwnerByIndex(address,uint256)":"2f745c59","tokenSymbol()":"7b61c320","tokenTotalSupply()":"f7abab9e","tokenTransfer(address,uint256)":"68cdafe6","tokenTransferFrom(address,address,uint256)":"961974ba","tokenURI(uint256)":"c87b56dd","totalNFTSupply()":"e2c79281","totalSupply()":"18160ddd","transferFrom(address,address,uint256)":"23b872dd","transferOwnership(address)":"f2fde38b","unpause()":"3f4ba83a"},"id":39}